{
  "_format": "hh-sol-artifact-1",
  "contractName": "AuraMemoryNFT",
  "sourceName": "contracts/AuraMemoryNFT.sol",
  "abi": [
    {
      "inputs": [
        {
          "internalType": "string",
          "name": "baseURI",
          "type": "string"
        }
      ],
      "stateMutability": "nonpayable",
      "type": "constructor"
    },
    {
      "anonymous": false,
      "inputs": [
        {
          "indexed": true,
          "internalType": "address",
          "name": "owner",
          "type": "address"
        },
        {
          "indexed": true,
          "internalType": "address",
          "name": "approved",
          "type": "address"
        },
        {
          "indexed": true,
          "internalType": "uint256",
          "name": "tokenId",
          "type": "uint256"
        }
      ],
      "name": "Approval",
      "type": "event"
    },
    {
      "anonymous": false,
      "inputs": [
        {
          "indexed": true,
          "internalType": "address",
          "name": "owner",
          "type": "address"
        },
        {
          "indexed": true,
          "internalType": "address",
          "name": "operator",
          "type": "address"
        },
        {
          "indexed": false,
          "internalType": "bool",
          "name": "approved",
          "type": "bool"
        }
      ],
      "name": "ApprovalForAll",
      "type": "event"
    },
    {
      "anonymous": false,
      "inputs": [
        {
          "indexed": true,
          "internalType": "uint256",
          "name": "tokenId",
          "type": "uint256"
        },
        {
          "indexed": false,
          "internalType": "uint256",
          "name": "price",
          "type": "uint256"
        }
      ],
      "name": "MemoryListed",
      "type": "event"
    },
    {
      "anonymous": false,
      "inputs": [
        {
          "indexed": true,
          "internalType": "uint256",
          "name": "tokenId",
          "type": "uint256"
        },
        {
          "indexed": true,
          "internalType": "address",
          "name": "minter",
          "type": "address"
        },
        {
          "indexed": false,
          "internalType": "string",
          "name": "mongoId",
          "type": "string"
        }
      ],
      "name": "MemoryMinted",
      "type": "event"
    },
    {
      "anonymous": false,
      "inputs": [
        {
          "indexed": true,
          "internalType": "uint256",
          "name": "tokenId",
          "type": "uint256"
        },
        {
          "indexed": true,
          "internalType": "address",
          "name": "buyer",
          "type": "address"
        },
        {
          "indexed": false,
          "internalType": "uint256",
          "name": "price",
          "type": "uint256"
        }
      ],
      "name": "MemorySold",
      "type": "event"
    },
    {
      "anonymous": false,
      "inputs": [
        {
          "indexed": true,
          "internalType": "address",
          "name": "from",
          "type": "address"
        },
        {
          "indexed": true,
          "internalType": "address",
          "name": "to",
          "type": "address"
        },
        {
          "indexed": true,
          "internalType": "uint256",
          "name": "tokenId",
          "type": "uint256"
        }
      ],
      "name": "Transfer",
      "type": "event"
    },
    {
      "inputs": [
        {
          "internalType": "address",
          "name": "to",
          "type": "address"
        },
        {
          "internalType": "uint256",
          "name": "tokenId",
          "type": "uint256"
        }
      ],
      "name": "approve",
      "outputs": [],
      "stateMutability": "nonpayable",
      "type": "function"
    },
    {
      "inputs": [
        {
          "internalType": "address",
          "name": "owner",
          "type": "address"
        }
      ],
      "name": "balanceOf",
      "outputs": [
        {
          "internalType": "uint256",
          "name": "",
          "type": "uint256"
        }
      ],
      "stateMutability": "view",
      "type": "function"
    },
    {
      "inputs": [
        {
          "internalType": "uint256",
          "name": "tokenId",
          "type": "uint256"
        }
      ],
      "name": "buyMemory",
      "outputs": [],
      "stateMutability": "payable",
      "type": "function"
    },
    {
      "inputs": [
        {
          "internalType": "uint256",
          "name": "tokenId",
          "type": "uint256"
        }
      ],
      "name": "cancelListing",
      "outputs": [],
      "stateMutability": "nonpayable",
      "type": "function"
    },
    {
      "inputs": [
        {
          "internalType": "uint256",
          "name": "tokenId",
          "type": "uint256"
        }
      ],
      "name": "getApproved",
      "outputs": [
        {
          "internalType": "address",
          "name": "",
          "type": "address"
        }
      ],
      "stateMutability": "view",
      "type": "function"
    },
    {
      "inputs": [
        {
          "internalType": "address",
          "name": "owner",
          "type": "address"
        },
        {
          "internalType": "address",
          "name": "operator",
          "type": "address"
        }
      ],
      "name": "isApprovedForAll",
      "outputs": [
        {
          "internalType": "bool",
          "name": "",
          "type": "bool"
        }
      ],
      "stateMutability": "view",
      "type": "function"
    },
    {
      "inputs": [
        {
          "internalType": "uint256",
          "name": "tokenId",
          "type": "uint256"
        },
        {
          "internalType": "uint256",
          "name": "price",
          "type": "uint256"
        }
      ],
      "name": "listMemory",
      "outputs": [],
      "stateMutability": "nonpayable",
      "type": "function"
    },
    {
      "inputs": [
        {
          "internalType": "string",
          "name": "",
          "type": "string"
        }
      ],
      "name": "memoryToToken",
      "outputs": [
        {
          "internalType": "uint256",
          "name": "",
          "type": "uint256"
        }
      ],
      "stateMutability": "view",
      "type": "function"
    },
    {
      "inputs": [
        {
          "internalType": "address",
          "name": "to",
          "type": "address"
        },
        {
          "internalType": "string",
          "name": "mongoId",
          "type": "string"
        }
      ],
      "name": "mintMemory",
      "outputs": [
        {
          "internalType": "uint256",
          "name": "",
          "type": "uint256"
        }
      ],
      "stateMutability": "nonpayable",
      "type": "function"
    },
    {
      "inputs": [],
      "name": "name",
      "outputs": [
        {
          "internalType": "string",
          "name": "",
          "type": "string"
        }
      ],
      "stateMutability": "view",
      "type": "function"
    },
    {
      "inputs": [],
      "name": "owner",
      "outputs": [
        {
          "internalType": "address",
          "name": "",
          "type": "address"
        }
      ],
      "stateMutability": "view",
      "type": "function"
    },
    {
      "inputs": [
        {
          "internalType": "uint256",
          "name": "tokenId",
          "type": "uint256"
        }
      ],
      "name": "ownerOf",
      "outputs": [
        {
          "internalType": "address",
          "name": "",
          "type": "address"
        }
      ],
      "stateMutability": "view",
      "type": "function"
    },
    {
      "inputs": [
        {
          "internalType": "address",
          "name": "from",
          "type": "address"
        },
        {
          "internalType": "address",
          "name": "to",
          "type": "address"
        },
        {
          "internalType": "uint256",
          "name": "tokenId",
          "type": "uint256"
        }
      ],
      "name": "safeTransferFrom",
      "outputs": [],
      "stateMutability": "nonpayable",
      "type": "function"
    },
    {
      "inputs": [
        {
          "internalType": "address",
          "name": "from",
          "type": "address"
        },
        {
          "internalType": "address",
          "name": "to",
          "type": "address"
        },
        {
          "internalType": "uint256",
          "name": "tokenId",
          "type": "uint256"
        },
        {
          "internalType": "bytes",
          "name": "data",
          "type": "bytes"
        }
      ],
      "name": "safeTransferFrom",
      "outputs": [],
      "stateMutability": "nonpayable",
      "type": "function"
    },
    {
      "inputs": [
        {
          "internalType": "address",
          "name": "operator",
          "type": "address"
        },
        {
          "internalType": "bool",
          "name": "approved",
          "type": "bool"
        }
      ],
      "name": "setApprovalForAll",
      "outputs": [],
      "stateMutability": "nonpayable",
      "type": "function"
    },
    {
      "inputs": [
        {
          "internalType": "string",
          "name": "baseURI",
          "type": "string"
        }
      ],
      "name": "setBaseURI",
      "outputs": [],
      "stateMutability": "nonpayable",
      "type": "function"
    },
    {
      "inputs": [
        {
          "internalType": "bytes4",
          "name": "interfaceId",
          "type": "bytes4"
        }
      ],
      "name": "supportsInterface",
      "outputs": [
        {
          "internalType": "bool",
          "name": "",
          "type": "bool"
        }
      ],
      "stateMutability": "view",
      "type": "function"
    },
    {
      "inputs": [],
      "name": "symbol",
      "outputs": [
        {
          "internalType": "string",
          "name": "",
          "type": "string"
        }
      ],
      "stateMutability": "view",
      "type": "function"
    },
    {
      "inputs": [
        {
          "internalType": "uint256",
          "name": "",
          "type": "uint256"
        }
      ],
      "name": "tokenMongoId",
      "outputs": [
        {
          "internalType": "string",
          "name": "",
          "type": "string"
        }
      ],
      "stateMutability": "view",
      "type": "function"
    },
    {
      "inputs": [
        {
          "internalType": "uint256",
          "name": "",
          "type": "uint256"
        }
      ],
      "name": "tokenPrice",
      "outputs": [
        {
          "internalType": "uint256",
          "name": "",
          "type": "uint256"
        }
      ],
      "stateMutability": "view",
      "type": "function"
    },
    {
      "inputs": [
        {
          "internalType": "uint256",
          "name": "tokenId",
          "type": "uint256"
        }
      ],
      "name": "tokenURI",
      "outputs": [
        {
          "internalType": "string",
          "name": "",
          "type": "string"
        }
      ],
      "stateMutability": "view",
      "type": "function"
    },
    {
      "inputs": [],
      "name": "totalSupply",
      "outputs": [
        {
          "internalType": "uint256",
          "name": "",
          "type": "uint256"
        }
      ],
      "stateMutability": "view",
      "type": "function"
    },
    {
      "inputs": [
        {
          "internalType": "address",
          "name": "from",
          "type": "address"
        },
        {
          "internalType": "address",
          "name": "to",
          "type": "address"
        },
        {
          "internalType": "uint256",
          "name": "tokenId",
          "type": "uint256"
        }
      ],
      "name": "transferFrom",
      "outputs": [],
      "stateMutability": "nonpayable",
      "type": "function"
    },
    {
      "inputs": [],
      "name": "withdraw",
      "outputs": [],
      "stateMutability": "nonpayable",
      "type": "function"
    }
  ],
  "bytecode": "0x608060405260016007553480156200001657600080fd5b5060405162002097380380620020978339810160408190526200003991620000df565b6040518060400160405280600f81526020016e105554904813595b5bdc9e48139195608a1b815250604051806040016040528060048152602001634155524160e01b81525081600090816200008f919062000243565b5060016200009e828262000243565b5050600680546001600160a01b03191633179055506008620000c1828262000243565b50506200030f565b634e487b7160e01b600052604160045260246000fd5b60006020808385031215620000f357600080fd5b82516001600160401b03808211156200010b57600080fd5b818501915085601f8301126200012057600080fd5b815181811115620001355762000135620000c9565b604051601f8201601f19908116603f01168101908382118183101715620001605762000160620000c9565b8160405282815288868487010111156200017957600080fd5b600093505b828410156200019d57848401860151818501870152928501926200017e565b600086848301015280965050505050505092915050565b600181811c90821680620001c957607f821691505b602082108103620001ea57634e487b7160e01b600052602260045260246000fd5b50919050565b601f8211156200023e57600081815260208120601f850160051c81016020861015620002195750805b601f850160051c820191505b818110156200023a5782815560010162000225565b5050505b505050565b81516001600160401b038111156200025f576200025f620000c9565b6200027781620002708454620001b4565b84620001f0565b602080601f831160018114620002af5760008415620002965750858301515b600019600386901b1c1916600185901b1785556200023a565b600085815260208120601f198616915b82811015620002e057888601518255948401946001909101908401620002bf565b5085821015620002ff5787850151600019600388901b60f8161c191681555b5050505050600190811b01905550565b611d78806200031f6000396000f3fe60806040526004361061014b5760003560e01c80636352211e116100b6578063a22cb4651161006f578063a22cb465146103c6578063b88d4fde146103e6578063c87b56dd14610406578063d4ddce8a14610426578063e3a10d3d14610453578063e985e9c51461046657600080fd5b80636352211e146102f957806363be68ad146103195780636b31fc601461033957806370a08231146103715780638da5cb5b1461039157806395d89b41146103b157600080fd5b8063305a67a811610108578063305a67a8146102445780633a9f12b6146102645780633ccfd60b1461028457806342842e0e14610299578063539508c3146102b957806355f804b3146102d957600080fd5b806301ffc9a71461015057806306fdde0314610185578063081812fc146101a7578063095ea7b3146101df57806318160ddd1461020157806323b872dd14610224575b600080fd5b34801561015c57600080fd5b5061017061016b3660046115f2565b610486565b60405190151581526020015b60405180910390f35b34801561019157600080fd5b5061019a6104d8565b60405161017c919061165f565b3480156101b357600080fd5b506101c76101c2366004611672565b61056a565b6040516001600160a01b03909116815260200161017c565b3480156101eb57600080fd5b506101ff6101fa3660046116a7565b610591565b005b34801561020d57600080fd5b506102166106ab565b60405190815260200161017c565b34801561023057600080fd5b506101ff61023f3660046116d1565b6106c1565b34801561025057600080fd5b506101ff61025f366004611672565b6106f2565b34801561027057600080fd5b5061021661027f366004611756565b610733565b34801561029057600080fd5b506101ff61087c565b3480156102a557600080fd5b506101ff6102b43660046116d1565b6108e2565b3480156102c557600080fd5b506101ff6102d43660046117a9565b6108fd565b3480156102e557600080fd5b506101ff6102f43660046117cb565b6109ba565b34801561030557600080fd5b506101c7610314366004611672565b6109f1565b34801561032557600080fd5b5061019a610334366004611672565b610a51565b34801561034557600080fd5b50610216610354366004611899565b8051602081830181018051600a8252928201919093012091525481565b34801561037d57600080fd5b5061021661038c3660046118e2565b610aeb565b34801561039d57600080fd5b506006546101c7906001600160a01b031681565b3480156103bd57600080fd5b5061019a610b71565b3480156103d257600080fd5b506101ff6103e13660046118fd565b610b80565b3480156103f257600080fd5b506101ff610401366004611939565b610b8f565b34801561041257600080fd5b5061019a610421366004611672565b610bc7565b34801561043257600080fd5b50610216610441366004611672565b600b6020526000908152604090205481565b6101ff610461366004611672565b610c2e565b34801561047257600080fd5b506101706104813660046119b5565b610dd2565b60006001600160e01b031982166380ac58cd60e01b14806104b757506001600160e01b03198216635b5e139f60e01b145b806104d257506301ffc9a760e01b6001600160e01b03198316145b92915050565b6060600080546104e7906119e8565b80601f0160208091040260200160405190810160405280929190818152602001828054610513906119e8565b80156105605780601f1061053557610100808354040283529160200191610560565b820191906000526020600020905b81548152906001019060200180831161054357829003601f168201915b5050505050905090565b600061057582610e00565b506000908152600460205260409020546001600160a01b031690565b600061059c826109f1565b9050806001600160a01b0316836001600160a01b03160361060e5760405162461bcd60e51b815260206004820152602160248201527f4552433732313a20617070726f76616c20746f2063757272656e74206f776e656044820152603960f91b60648201526084015b60405180910390fd5b336001600160a01b038216148061062a575061062a8133610dd2565b61069c5760405162461bcd60e51b815260206004820152603d60248201527f4552433732313a20617070726f76652063616c6c6572206973206e6f7420746f60448201527f6b656e206f776e6572206f7220617070726f76656420666f7220616c6c0000006064820152608401610605565b6106a68383610e5f565b505050565b600060016007546106bc9190611a38565b905090565b6106cb3382610ecd565b6106e75760405162461bcd60e51b815260040161060590611a4b565b6106a6838383610f2c565b336106fc826109f1565b6001600160a01b0316146107225760405162461bcd60e51b815260040161060590611a98565b6000908152600b6020526040812055565b60008161076f5760405162461bcd60e51b815260206004820152600a602482015269139bc81b5bdb99dbd25960b21b6044820152606401610605565b600a8383604051610781929190611abb565b9081526020016040518091039020546000146107d05760405162461bcd60e51b815260206004820152600e60248201526d105b1c9958591e481b5a5b9d195960921b6044820152606401610605565b60078054600091826107e183611acb565b9190505590506107f18582611090565b600081815260096020526040902061080a848683611b32565b5080600a858560405161081e929190611abb565b908152602001604051809103902081905550846001600160a01b0316817fcb329f57aea04a3b6dd2918cb7e3852072d698bd945130fc20e223186ad47549868660405161086c929190611bf3565b60405180910390a3949350505050565b6006546001600160a01b031633146108a65760405162461bcd60e51b815260040161060590611a98565b6006546040516001600160a01b03909116904780156108fc02916000818181858888f193505050501580156108df573d6000803e3d6000fd5b50565b6106a683838360405180602001604052806000815250610b8f565b33610907836109f1565b6001600160a01b03161461092d5760405162461bcd60e51b815260040161060590611a98565b600081116109695760405162461bcd60e51b815260206004820152600960248201526805072696365203d20360bc1b6044820152606401610605565b6000828152600b6020526040908190208290555182907f80c586da035f7c5d5273fca5b144178007dc205f1f7f3121aa99bcb7eec04c37906109ae9084815260200190565b60405180910390a25050565b6006546001600160a01b031633146109e45760405162461bcd60e51b815260040161060590611a98565b60086106a6828483611b32565b6000818152600260205260408120546001600160a01b0316806104d25760405162461bcd60e51b8152602060048201526018602482015277115490cdcc8c4e881a5b9d985b1a59081d1bdad95b88125160421b6044820152606401610605565b60096020526000908152604090208054610a6a906119e8565b80601f0160208091040260200160405190810160405280929190818152602001828054610a96906119e8565b8015610ae35780601f10610ab857610100808354040283529160200191610ae3565b820191906000526020600020905b815481529060010190602001808311610ac657829003601f168201915b505050505081565b60006001600160a01b038216610b555760405162461bcd60e51b815260206004820152602960248201527f4552433732313a2061646472657373207a65726f206973206e6f7420612076616044820152683634b21037bbb732b960b91b6064820152608401610605565b506001600160a01b031660009081526003602052604090205490565b6060600180546104e7906119e8565b610b8b3383836110aa565b5050565b610b993383610ecd565b610bb55760405162461bcd60e51b815260040161060590611a4b565b610bc184848484611170565b50505050565b6060610bd282610e00565b6000610bdc6111a3565b90506000815111610bfc5760405180602001604052806000815250610c27565b80610c06846111b2565b604051602001610c17929190611c22565b6040516020818303038152906040525b9392505050565b6000818152600b602052604090205480610c775760405162461bcd60e51b815260206004820152600a602482015269139bdd081b1a5cdd195960b21b6044820152606401610605565b80341015610cb55760405162461bcd60e51b815260206004820152600b60248201526a131bddc81c185e5b595b9d60aa1b6044820152606401610605565b6000610cc0836109f1565b9050336001600160a01b03821603610d045760405162461bcd60e51b815260206004820152600760248201526613dddb8813919560ca1b6044820152606401610605565b6000838152600b6020526040812055610d1e813385610f2c565b6040516001600160a01b0382169083156108fc029084906000818181858888f19350505050158015610d54573d6000803e3d6000fd5b5081341115610d9557336108fc610d6b8434611a38565b6040518115909202916000818181858888f19350505050158015610d93573d6000803e3d6000fd5b505b604051828152339084907f660ef7a8d1809fd04117f0883daab492fa4698ff19a00d290d603be1eb092f0e906020015b60405180910390a3505050565b6001600160a01b03918216600090815260056020908152604080832093909416825291909152205460ff1690565b6000818152600260205260409020546001600160a01b03166108df5760405162461bcd60e51b8152602060048201526018602482015277115490cdcc8c4e881a5b9d985b1a59081d1bdad95b88125160421b6044820152606401610605565b600081815260046020526040902080546001600160a01b0319166001600160a01b0384169081179091558190610e94826109f1565b6001600160a01b03167f8c5be1e5ebec7d5bd14f71427d1e84f3dd0314c0f7b2291e5b200ac8c7c3b92560405160405180910390a45050565b600080610ed9836109f1565b9050806001600160a01b0316846001600160a01b03161480610f005750610f008185610dd2565b80610f245750836001600160a01b0316610f198461056a565b6001600160a01b0316145b949350505050565b826001600160a01b0316610f3f826109f1565b6001600160a01b031614610f655760405162461bcd60e51b815260040161060590611c51565b6001600160a01b038216610fc75760405162461bcd60e51b8152602060048201526024808201527f4552433732313a207472616e7366657220746f20746865207a65726f206164646044820152637265737360e01b6064820152608401610605565b826001600160a01b0316610fda826109f1565b6001600160a01b0316146110005760405162461bcd60e51b815260040161060590611c51565b600081815260046020908152604080832080546001600160a01b03199081169091556001600160a01b0387811680865260038552838620805460001901905590871680865283862080546001019055868652600290945282852080549092168417909155905184937fddf252ad1be2c89b69c2b068fc378daa952ba7f163c4a11628f55a4df523b3ef91a4505050565b610b8b828260405180602001604052806000815250611245565b816001600160a01b0316836001600160a01b03160361110b5760405162461bcd60e51b815260206004820152601960248201527f4552433732313a20617070726f766520746f2063616c6c6572000000000000006044820152606401610605565b6001600160a01b03838116600081815260056020908152604080832094871680845294825291829020805460ff191686151590811790915591519182527f17307eab39ab6107e8899845ad3d59bd9653f200f220920489ca2b5937696c319101610dc5565b61117b848484610f2c565b61118784848484611278565b610bc15760405162461bcd60e51b815260040161060590611c96565b6060600880546104e7906119e8565b606060006111bf83611379565b600101905060008167ffffffffffffffff8111156111df576111df61180d565b6040519080825280601f01601f191660200182016040528015611209576020820181803683370190505b5090508181016020015b600019016f181899199a1a9b1b9c1cb0b131b232b360811b600a86061a8153600a850494508461121357509392505050565b61124f8383611451565b61125c6000848484611278565b6106a65760405162461bcd60e51b815260040161060590611c96565b60006001600160a01b0384163b1561136e57604051630a85bd0160e11b81526001600160a01b0385169063150b7a02906112bc903390899088908890600401611ce8565b6020604051808303816000875af19250505080156112f7575060408051601f3d908101601f191682019092526112f491810190611d25565b60015b611354573d808015611325576040519150601f19603f3d011682016040523d82523d6000602084013e61132a565b606091505b50805160000361134c5760405162461bcd60e51b815260040161060590611c96565b805181602001fd5b6001600160e01b031916630a85bd0160e11b149050610f24565b506001949350505050565b60008072184f03e93ff9f4daa797ed6e38ed64bf6a1f0160401b83106113b85772184f03e93ff9f4daa797ed6e38ed64bf6a1f0160401b830492506040015b6d04ee2d6d415b85acef810000000083106113e4576d04ee2d6d415b85acef8100000000830492506020015b662386f26fc10000831061140257662386f26fc10000830492506010015b6305f5e100831061141a576305f5e100830492506008015b612710831061142e57612710830492506004015b60648310611440576064830492506002015b600a83106104d25760010192915050565b6001600160a01b0382166114a75760405162461bcd60e51b815260206004820181905260248201527f4552433732313a206d696e7420746f20746865207a65726f20616464726573736044820152606401610605565b6000818152600260205260409020546001600160a01b03161561150c5760405162461bcd60e51b815260206004820152601c60248201527f4552433732313a20746f6b656e20616c7265616479206d696e746564000000006044820152606401610605565b6000818152600260205260409020546001600160a01b0316156115715760405162461bcd60e51b815260206004820152601c60248201527f4552433732313a20746f6b656e20616c7265616479206d696e746564000000006044820152606401610605565b6001600160a01b038216600081815260036020908152604080832080546001019055848352600290915280822080546001600160a01b0319168417905551839291907fddf252ad1be2c89b69c2b068fc378daa952ba7f163c4a11628f55a4df523b3ef908290a45050565b6001600160e01b0319811681146108df57600080fd5b60006020828403121561160457600080fd5b8135610c27816115dc565b60005b8381101561162a578181015183820152602001611612565b50506000910152565b6000815180845261164b81602086016020860161160f565b601f01601f19169290920160200192915050565b602081526000610c276020830184611633565b60006020828403121561168457600080fd5b5035919050565b80356001600160a01b03811681146116a257600080fd5b919050565b600080604083850312156116ba57600080fd5b6116c38361168b565b946020939093013593505050565b6000806000606084860312156116e657600080fd5b6116ef8461168b565b92506116fd6020850161168b565b9150604084013590509250925092565b60008083601f84011261171f57600080fd5b50813567ffffffffffffffff81111561173757600080fd5b60208301915083602082850101111561174f57600080fd5b9250929050565b60008060006040848603121561176b57600080fd5b6117748461168b565b9250602084013567ffffffffffffffff81111561179057600080fd5b61179c8682870161170d565b9497909650939450505050565b600080604083850312156117bc57600080fd5b50508035926020909101359150565b600080602083850312156117de57600080fd5b823567ffffffffffffffff8111156117f557600080fd5b6118018582860161170d565b90969095509350505050565b634e487b7160e01b600052604160045260246000fd5b600067ffffffffffffffff8084111561183e5761183e61180d565b604051601f8501601f19908116603f011681019082821181831017156118665761186661180d565b8160405280935085815286868601111561187f57600080fd5b858560208301376000602087830101525050509392505050565b6000602082840312156118ab57600080fd5b813567ffffffffffffffff8111156118c257600080fd5b8201601f810184136118d357600080fd5b610f2484823560208401611823565b6000602082840312156118f457600080fd5b610c278261168b565b6000806040838503121561191057600080fd5b6119198361168b565b91506020830135801515811461192e57600080fd5b809150509250929050565b6000806000806080858703121561194f57600080fd5b6119588561168b565b93506119666020860161168b565b925060408501359150606085013567ffffffffffffffff81111561198957600080fd5b8501601f8101871361199a57600080fd5b6119a987823560208401611823565b91505092959194509250565b600080604083850312156119c857600080fd5b6119d18361168b565b91506119df6020840161168b565b90509250929050565b600181811c908216806119fc57607f821691505b602082108103611a1c57634e487b7160e01b600052602260045260246000fd5b50919050565b634e487b7160e01b600052601160045260246000fd5b818103818111156104d2576104d2611a22565b6020808252602d908201527f4552433732313a2063616c6c6572206973206e6f7420746f6b656e206f776e6560408201526c1c881bdc88185c1c1c9bdd9959609a1b606082015260800190565b6020808252600990820152682737ba1037bbb732b960b91b604082015260600190565b8183823760009101908152919050565b600060018201611add57611add611a22565b5060010190565b601f8211156106a657600081815260208120601f850160051c81016020861015611b0b5750805b601f850160051c820191505b81811015611b2a57828155600101611b17565b505050505050565b67ffffffffffffffff831115611b4a57611b4a61180d565b611b5e83611b5883546119e8565b83611ae4565b6000601f841160018114611b925760008515611b7a5750838201355b600019600387901b1c1916600186901b178355611bec565b600083815260209020601f19861690835b82811015611bc35786850135825560209485019460019092019101611ba3565b5086821015611be05760001960f88860031b161c19848701351681555b505060018560011b0183555b5050505050565b60208152816020820152818360408301376000818301604090810191909152601f909201601f19160101919050565b60008351611c3481846020880161160f565b835190830190611c4881836020880161160f565b01949350505050565b60208082526025908201527f4552433732313a207472616e736665722066726f6d20696e636f72726563742060408201526437bbb732b960d91b606082015260800190565b60208082526032908201527f4552433732313a207472616e7366657220746f206e6f6e20455243373231526560408201527131b2b4bb32b91034b6b83632b6b2b73a32b960711b606082015260800190565b6001600160a01b0385811682528416602082015260408101839052608060608201819052600090611d1b90830184611633565b9695505050505050565b600060208284031215611d3757600080fd5b8151610c27816115dc56fea26469706673582212206520ae98b3acff93d4f076cf509e97d7fa8ae6653b018306acb6d2243e70302f64736f6c63430008140033",
  "linkReferences": {},
  "deployedLinkReferences": {}
}